:100000000C9463000C948B000C948B000C948B006C
:100010000C948B000C948B000C948B000C94E604D5
:100020000C948B000C948B000C948B000C948B0024
:100030000C948B000C948B000C948B000C948B0014
:100040000C949C040C948B000C948E050C94680505
:100050000C948B000C948B000C948B000C948B00F4
:100060000C948B000C948B000000000023002600F1
:10007000290000000000240027002A0000000008DA
:10008000000201000003040700000000000000005F
:10009000010204081020408001020408102001021F
:1000A0000408102000000000250028002B00040494
:1000B0000404040404040202020202020303030310
:1000C000030302002E0811241FBECFEFD8E0DEBFCD
:1000D000CDBF11E0A0E0B1E0E4E0F5E102C00590A1
:1000E0000D92A632B107D9F721E0A6E2B1E001C036
:1000F0001D92AD3DB207E1F710E0C3E6D0E004C0C9
:100100002197FE010E94750AC236D107C9F70E94E5
:1001100005060C94800A0C94000090E0FC01E45861
:10012000FF4F2491FC01E057FF4F3491FC01E25551
:10013000FF4FE491EE2309F43CC0222339F1233030
:1001400091F038F42130A9F0223001F584B58F7D8B
:1001500012C0273091F02830A1F02430B9F48091FA
:1001600080008F7D03C0809180008F778093800016
:100170000DC084B58F7784BD09C08091B0008F77A2
:1001800003C08091B0008F7D8093B000F0E0EE0F4F
:10019000FF1FEC55FF4FA591B4919FB7F8946111E3
:1001A00004C08C913095382302C0EC913E2B3C93D7
:1001B0009FBF0895CF93DF9390E0FC01E057FF4F7E
:1001C0002491FC01E255FF4F8491882361F190E076
:1001D000880F991FFC01EE58FF4FC591D491FC0187
:1001E000EC55FF4FA591B491611109C09FB7F894E8
:1001F0008881209582238883EC912E230BC0623066
:1002000061F49FB7F8948881322F309583238883D7
:10021000EC912E2B2C939FBF06C08FB7F894E881EA
:100220002E2B28838FBFDF91CF9108954F925F923D
:100230006F927F928F929F92AF92BF92CF92DF92F6
:10024000EF92FF921F93CF93DF93EC018091000117
:10025000823021F08F3F09F00AC204C0E2ECF0E0E6
:1002600014916FC082E080930001E2ECF0E0149101
:100270001F3F09F4FCC1113009F440C030F11230C5
:1002800009F05FC01092B0001092B1008091B000F0
:1002900082608093B0008091B10081608093B10052
:1002A000E0EBF0E0E491F0E0EE0FFF1FEC55FF4FC4
:1002B000859194919093CE018093CD01E2E9F0E095
:1002C000E491E093CC0112E0CDC114BC15BC84B51F
:1002D000826084BD85B5816085BDE0EBF0E0E4918E
:1002E000F0E0EE0FFF1FEC55FF4F85919491E2E98E
:1002F000F0E0E491E093D00110E0B4C110928000EE
:1003000010928100809181008860809381008091AB
:100310008100816080938100E0EBF0E0E491F0E007
:10032000EE0FFF1FEC55FF4F85919491E2E9F0E04D
:10033000E491E093CF0161E082E00E94DA0011E0F5
:10034000B1C017FD94C161E082E00E94DA00812F04
:100350008D7F09F0A7C04E01A12CB12C60E072E1A5
:100360008AE790E0A50194010E94470A29013A0119
:1003700069017A0121E0C21AD108E108F1088FEF82
:10038000C816D104E104F10409F008F44BC060E49C
:1003900072E48FE090E0A50194010E94470A690190
:1003A0007A0181E0C81AD108E108F108123001F59C
:1003B0002FEFC216D104E104F10409F008F4EAC0F9
:1003C00060E970ED83E090E0A50194010E94470A86
:1003D00069017A0181E0C81AD108E108F1082FEF1C
:1003E000C216D104E104F10409F030F583E053C0F2
:1003F0008FEFC816D104E104F104B1F0A8F068E46D
:1004000078EE81E090E0A50194010E94470A69011D
:100410007A0181E0C81AD108E108F108112309F432
:10042000EEC0E4C081E001C082E0111134C095B596
:10043000987F892B85BD68C068E478EE81E090E004
:10044000A50194010E94470A69017A0181E0C81A56
:10045000D108E108F1082FEFC216D104E104F1043C
:1004600009F008F495C064E274EF80E090E0A50123
:1004700094010E94470A69017A0181E0C81AD108F3
:10048000E108F1082FEFC216D104E104F10411F0E4
:1004900008F082C085E09091B100987F892B80930D
:1004A000B10032C04E01A12CB12C60E072E18AE7AC
:1004B00090E0A50194010E94470A69017A0181E058
:1004C000C81AD108E108F108C114D10421E0E206FC
:1004D000F10488F068E478EE81E090E0A5019401F1
:1004E0000E94470A69017A0181E0C81AD108E1082F
:1004F000F10883E001C081E0113031F49091810076
:10050000987F892B809381009E01220F331FA8ECD6
:10051000B0E00E94660A28EE33E040E050E00E941E
:10052000250A113099F0123019F11111A0C0C7BC81
:100530002093D9013093DA014093DB015093DC0121
:1005400080916E00826080936E0091C0D09289008D
:10055000C09288002093D5013093D6014093D701F3
:100560005093D80180916F00826080936F007FC0AC
:10057000C092B3002093D1013093D2014093D301B4
:100580005093D401809170008260809370006FC09E
:1005900084E081CF82E07FCF62E17AE780E090E083
:1005A000A50194010E94470A69017A0181E0C81AF5
:1005B000D108E108F1088FEFC816D104E104F10475
:1005C00099F090F0D301C2012AE0B595A7959795CF
:1005D00087952A95D1F76C017D0121E0C21AD108D7
:1005E000E108F10887E057CF86E055CF2FEFC2161C
:1005F000D104E104F10409F078F684E016CF8FEF1E
:10060000C816D104E104F10459F150F162E17AE72E
:1006100080E090E0A50194010E94470A69017A01F7
:1006200081E0C81AD108E108F1082FEFC216D10401
:10063000E104F10499F090F0D301C2013AE0B595DC
:10064000A795979587953A95D1F76C017D0121E0A3
:10065000C21AD108E108F10885E0E9CE84E0E7CECE
:1006600083E0E5CE61E082E00E94DA0074CEDF91A3
:10067000CF911F91FF90EF90DF90CF90BF90AF9000
:100680009F908F907F906F905F904F9008953FB7AD
:10069000F89480912B0190912C01A0912D01B091A3
:1006A0002E0126B5A89B05C02F3F19F00196A11D6C
:1006B000B11D3FBFBA2FA92F982F8827820F911DF8
:1006C000A11DB11DBC01CD0142E0660F771F881F3F
:1006D000991F4A95D1F70895CF92DF92EF92FF923A
:1006E0000F931F93CF93DF936C017A018B01C0E0CE
:1006F000D0E0CE15DF0581F0D8016D918D01D601D6
:10070000ED91FC910190F081E02DC6010995892BB6
:1007100011F02196EECF7E01C701DF91CF911F919D
:100720000F91FF90EF90DF90CF900895089580E0B3
:1007300090E00895FC01538D448D252F30E0842FE7
:1007400090E0821B930B541710F0CF9608950197F9
:100750000895FC01918D828D981761F0828DDF01E3
:10076000A80FB11D5D968C91928D9F5F9F73928FA4
:1007700090E008958FEF9FEF0895FC01918D828D99
:10078000981731F0828DE80FF11D858D90E0089566
:100790008FEF9FEF0895FC01918D228D892F90E0BE
:1007A000805C9F4F821B91098F73992708958FE278
:1007B00091E00E94CB0321E0892B09F420E0822FF5
:1007C0000895FC01848DDF01A80FB11DA35ABF4F0E
:1007D0002C91848D90E001968F739927848FA68940
:1007E000B7892C93A089B1898C91837080648C9394
:1007F000938D848D981306C00288F389E02D808143
:100800008F7D80830895EF92FF920F931F93CF9374
:10081000DF93EC0181E0888F9B8D8C8D981305C050
:10082000E889F989808185FD26C0F62E0B8D10E0C0
:100830000F5F1F4F0F731127E02E8C8DE8120CC035
:100840000FB607FCFACFE889F989808185FFF5CFDB
:10085000CE010E94E103F1CF8B8DFE01E80FF11D67
:10086000E35AFF4FF0829FB7F8940B8FEA89FB8918
:10087000808180620AC09FB7F894EE89FF89608307
:10088000E889F98980818370806480839FBF81E0DB
:1008900090E0DF91CF911F910F91FF90EF9008951D
:1008A000CF93DF93EC01888D8823C9F0EA89FB8917
:1008B000808185FD05C0A889B9898C9186FD0FC00E
:1008C0000FB607FCF5CF808185FFF2CFA889B989E3
:1008D0008C9185FFEDCFCE010E94E103E7CFDF9140
:1008E000CF91089580E090E0892B29F00E94D703F2
:1008F00081110C940000089560E08AE00E948D0050
:1009000060E089E00E948D0060E088E00C948D003A
:10091000009769F0FC0101900020E9F73197AF01E1
:10092000481B590BBC018FE291E00C946C0380E0F2
:1009300090E008950E947B0A1F920F920FB60F92CB
:1009400011242F933F938F939F93AF93BF938091E5
:10095000270190912801A0912901B0912A0130919D
:10096000260123E0230F2D3720F40196A11DB11D90
:1009700005C026E8230F0296A11DB11D2093260174
:100980008093270190932801A0932901B0932A0115
:1009900080912B0190912C01A0912D01B0912E01FD
:1009A0000196A11DB11D80932B0190932C01A09362
:1009B0002D01B0932E01BF91AF919F918F913F91E7
:1009C0002F910F900FBE0F901F9018951F920F92AE
:1009D0000FB60F9211242F933F934F935F936F9312
:1009E0007F938F939F93AF93BF93EF93FF938091E8
:1009F000D1019091D201A091D301B091D401892B62
:100A00008A2B8B2B59F19091CC01E091CD01F09183
:100A1000CE018081892780838091D1019091D2017C
:100A2000A091D301B091D401181619061A061B061D
:100A30000CF03DC08091D1019091D201A091D301E1
:100A4000B091D4010197A109B1098093D10190938C
:100A5000D201A093D301B093D40129C080910001A9
:100A6000E2ECF0E0E4919FEF90930001E130B9F007
:100A700098F0E230C9F4909170009D7F90937000DF
:100A800091E09093B0009091B100987F9460909322
:100A9000B1001092B30008C010926E0005C0909192
:100AA0006F009D7F90936F0060E00E948D00FF912A
:100AB000EF91BF91AF919F918F917F916F915F91D6
:100AC0004F913F912F910F900FBE0F901F9018954F
:100AD0001F920F920FB60F9211242F933F934F93B3
:100AE0005F936F937F938F939F93AF93BF93EF9396
:100AF000FF938FE291E00E94E103FF91EF91BF919C
:100B0000AF919F918F917F916F915F914F913F91A5
:100B10002F910F900FBE0F901F9018951F920F925C
:100B20000FB60F9211242F938F939F93EF93FF9300
:100B3000E0913F01F09140018081E0914501F09109
:100B4000460182FD12C09081809148018F5F8F73B2
:100B500020914901821751F0E0914801F0E0E15DF8
:100B6000FE4F958F8093480101C08081FF91EF91E6
:100B70009F918F912F910F900FBE0F901F901895FE
:100B8000CF92DF92EF92FF920F931F93E82FF92FEE
:100B900005C0015011092109310961F190819623A5
:100BA0009417B9F305C0015011092109310911F158
:100BB000908196239413F7CFC12CD12CE12CF12CEA
:100BC0000AC08FEFC81AD80AE80AF80A0C151D05E2
:100BD0002E053F0579F080818623841791F36C2DD3
:100BE0007D2D8E2D9F2D1F910F91FF90EF90DF9007
:100BF000CF90089560E070E080E090E01F910F9149
:100C0000FF90EF90DF90CF900895CF93DF93CDB713
:100C1000DEB7A2970FB6F894DEBF0FBECDBF7894B3
:100C200084B5826084BD84B5816084BD85B58260F1
:100C300085BD85B5816085BD80916E0081608093A2
:100C40006E0010928100809181008260809381000B
:100C5000809181008160809381008091800081601B
:100C6000809380008091B10084608093B100809176
:100C7000B00081608093B00080917A00846080939E
:100C80007A0080917A00826080937A0080917A0065
:100C9000816080937A0080917A00806880937A00E6
:100CA0001092C100E0913F01F091400182E0808309
:100CB000E0913B01F0913C011082E0913D01F09107
:100CC0003E018FEC808310924701E0914301F09147
:100CD000440186E08083E0914101F09142018081EE
:100CE00080618083E0914101F091420180818860C0
:100CF0008083E0914101F09142018081806880838E
:100D0000E0914101F091420180818F7D808361E01B
:100D10008AE00E94DA0061E089E00E94DA0061E086
:100D200088E00E94DA0060E083E00E94DA0061E07F
:100D300084E00E94DA0061E082E00E94DA000E9412
:100D40007C0460E084E00E948D0083E090E00197E5
:100D5000F1F761E084E00E948D0083E290E001976A
:100D6000F1F760E084E00E948D00E3E9F0E0649137
:100D7000E1EBF0E08491E82FF0E0EE0FFF1FE8597F
:100D8000FF4F8591949100E412E42FE030E0462F6C
:100D90000E94C005611571058105910549F0DC01CE
:100DA000CB010196A11DB11DBC01CD019F7003C0F7
:100DB00060E070E0CB010E94FC082DEB37E346E8D1
:100DC00055E30E94B30920E03CEF45E057E40E9460
:100DD000B30920E030E040E05FE30E94B3096B011B
:100DE0007C019B01AC010E94200A882319F083E159
:100DF00091E01AC046015701E894B7F82FEF3FEF92
:100E00004FE75FE7C501B4010E94200A81110FC0BE
:100E10002FEF3FEF4FE75FE7C501B4010E94C8081D
:100E200018162CF487E191E00E9488049BC02FEFF4
:100E30003FEF4FE75FE4C701B6010E94AE09181605
:100E40001CF48BE191E0F0CF2FEF3FEF4FE75FEC29
:100E5000C701B6010E94C80887FDF3CF20E030E04B
:100E6000A901C701B6010E94C80887FF09C06DE249
:100E70008FE291E00E940304C701B601905802C0BE
:100E8000C701B6012AE037ED43EA5BE30E945C0844
:100E90002B013C010E94CD084B015C010E94FC0823
:100EA0009B01AC01C301B2010E945B082B013C0114
:100EB00019A28E010F5D1F4F1801C501B4012AE070
:100EC00030E040E050E00E94250A49015A01605D8F
:100ED000F80162938F01232B242B252B71F7CF016F
:100EE0000E9488046EE28FE291E00E94030413E006
:100EF0001150C1F120E030E040E251E4C301B20101
:100F00000E94B3094B015C010E94CD089B0140E0A7
:100F100050E019A221016AA3632E742E052FCA0185
:100F2000B9012AE030E040E050E00E94250A605D0F
:100F3000F20162932F01211531054105510579F721
:100F4000CF010E9488046AA1762D872D902F0E94E0
:100F5000FC089B01AC01C501B4010E945B082B0198
:100F60003C01C6CF8FE191E00E94880482E291E0CB
:100F70000E9488040E9447034B015C0184EF482EC5
:100F800055245394612C712C0E944703DC01CB0142
:100F900088199909AA09BB09883E9340A105B105A2
:100FA00098F3F1E04F1A51086108710828EE820E9B
:100FB00023E0921EA11CB11C411451046104710470
:100FC00019F70E947C0420E030E040EF51E4C701B3
:100FD000B6010E94C80887FF3EC020E030E040EA2A
:100FE00051E4C701B6010E94AE0987FD07C061E068
:100FF0008AE00E948D0080ED97E02BC020E030E079
:1010000040EA51E4C701B6010E94C80887FF11C039
:1010100020E030E040E251E4C701B6010E94AE0991
:1010200018163CF461E089E00E948D0084EC99E0A0
:1010300010C020E030E040E251E4C701B6010E9458
:10104000C808181644F061E088E00E948D0088EB23
:101050009BE00E9416010E94720473CEEFE2F1E061
:101060001382128288EE93E0A0E0B0E0848395833F
:10107000A683B78385E091E09183808385EC90E03F
:101080009587848784EC90E09787868780EC90E052
:10109000918B808B81EC90E0938B828B82EC90E043
:1010A000958B848B86EC90E0978B868B118E128EBD
:1010B000138E148E08955058BB27AA270E947308D8
:1010C0000C9474090E94660938F00E946D0920F0A2
:1010D00039F49F3F19F426F40C9463090EF4E0955B
:1010E000E7FB0C945D09E92F0E94850958F3BA17B4
:1010F000620773078407950720F079F4A6F50C942E
:10110000A7090EF4E0950B2EBA2FA02D0B01B90103
:1011100090010C01CA01A0011124FF27591B99F06D
:10112000593F50F4503E68F11A16F040A22F232F79
:10113000342F4427585FF3CF469537952795A795C9
:10114000F0405395C9F77EF41F16BA0B620B730B70
:10115000840BBAF09150A1F0FF0FBB1F661F771FE1
:10116000881FC2F70EC0BA0F621F731F841F48F496
:10117000879577956795B795F7959E3F08F0B0CF1F
:101180009395880F08F09927EE0F97958795089506
:101190000E94390908F481E008950E948D0988F0C1
:1011A0009F5798F0B92F9927B751B0F0E1F0660F2B
:1011B000771F881F991F1AF0BA95C9F714C0B1306C
:1011C00091F00E94A709B1E008950C94A709672F38
:1011D000782F8827B85F39F0B93FCCF3869577959B
:1011E0006795B395D9F73EF4909580957095619584
:1011F0007F4F8F4F9F4F0895E89409C097FB3EF4AF
:1012000090958095709561957F4F8F4F9F4F992353
:10121000A9F0F92F96E9BB279395F69587957795D1
:101220006795B795F111F8CFFAF4BB0F11F460FF91
:101230001BC06F5F7F4F8F4F9F4F16C0882311F0E9
:1012400096E911C0772321F09EE8872F762F05C0FD
:10125000662371F096E8862F70E060E02AF09A9598
:10126000660F771F881FDAF7880F9695879597F98D
:101270000895990F0008550FAA0BE0E8FEEF161627
:101280001706E807F907C0F012161306E407F5077A
:1012900098F0621B730B840B950B39F40A2661F0EE
:1012A000232B242B252B21F408950A2609F4A14091
:1012B000A6958FEF811D811D089597F99F6780E89E
:1012C00070E060E008959FEF80EC089500240A9498
:1012D0001616170618060906089500240A94121611
:1012E0001306140605060895092E0394000C11F444
:1012F000882352F0BB0F40F4BF2B11F460FF04C0F1
:101300006F5F7F4F8F4F9F4F089557FD9058440F49
:10131000551F59F05F3F71F04795880F97FB991F54
:1013200061F09F3F79F08795089512161306140611
:10133000551FF2CF4695F1DF08C01616170618069E
:10134000991FF1CF86957105610508940895E89479
:10135000BB2766277727CB0197F908950E943909A3
:1013600008F48FEF08950E94C6090C9474090E9436
:10137000660938F00E946D0920F0952311F00C9455
:101380005D090C94630911240C94A8090E94850935
:1013900070F3959FC1F3950F50E0551F629FF001C8
:1013A000729FBB27F00DB11D639FAA27F00DB11DE1
:1013B000AA1F649F6627B00DA11D661F829F22276A
:1013C000B00DA11D621F739FB00DA11D621F839FF1
:1013D000A00D611D221F749F3327A00D611D231FC7
:1013E000849F600D211D822F762F6A2F11249F5715
:1013F00050409AF0F1F088234AF0EE0FFF1FBB1F18
:10140000661F771F881F91505040A9F79E3F5105D6
:1014100080F00C945D090C94A8095F3FE4F3983EBA
:10142000D4F3869577956795B795F795E7959F5F80
:10143000C1F7FE2B880F911D9695879597F9089512
:101440000E943909880B990B0895A1E21A2EAA1B54
:10145000BB1BFD010DC0AA1FBB1FEE1FFF1FA21764
:10146000B307E407F50720F0A21BB30BE40BF50B61
:10147000661F771F881F991F1A9469F760957095EA
:10148000809590959B01AC01BD01CF010895052E7B
:1014900097FB1EF400940E945E0A57FD07D00E943D
:1014A000250A07FC03D04EF40C945E0A5095409533
:1014B000309521953F4F4F4F5F4F08959095809500
:1014C000709561957F4F8F4F9F4F0895A29FB001F8
:1014D000B39FC001A39F700D811D1124911DB29F68
:1014E000700D811D1124911D0895EE0FFF1F0590B1
:1014F000F491E02D099481E090E0F8940C94800A36
:04150000F894FFCF8D
:10150400FF0000000003046C039A035004CB03A9FA
:1015140003BD036E616E00696E66006F76660063DC
:061524006D000D0A00003D
:00000001FF
